:020000040800F2
:1000000000000000ED0100080102000801020008E4
:1000100001020008010200080102000800000000BF
:1000200000000000000000000000000001020008C5
:10003000010200080000000001020008010200089F
:100040000102000801020008010200080102000884
:100050000102000801020008010200080102000874
:100060000102000801020008010200080102000864
:100070000102000801020008010200080102000854
:100080000102000801020008010200080102000844
:100090000102000801020008010200080102000834
:1000A000010200080102000800000000010200082F
:1000B0000102000801020008010200080102000814
:1000C0000102000801020008010200080102000804
:1000D00001020008010200080102000801020008F4
:1000E00001020008010200080102000800000000EF
:1000F00000000000000000000102000801020008EA
:100100000102000801020008910100080102000834
:1001100001020008010200080102000801020008B3
:1001200001020008010200080102000801020008A3
:100130000102000801020008010200080102000893
:10014000180300080000002000000020000000202C
:1001500000000020005000200000002018030008CC
:1001600000000020000000200000002081B0006896
:100170000090009801B070470160704780B56F46ED
:10018000FFF7F4FF80BD80B56F46FFF7F5FF80BD38
:1001900081B00020009000980130009001B07047BD
:1001A00080B56F4686B000F0ACF80190012007F8EA
:1001B000050C17F8050C00F065F80146019802914E
:1001C00018300390FFF7DAFF01460398059105996F
:1001D00041F0180105910599FFF7D5FFFFE7029857
:1001E0000C304FF08051FFF7CEFFF8E7DFF80CD06E
:1001F00000F008F8FFF7D4FF70470000005000201F
:10020000FEE700000D480E490E4A4FF000034FF084
:1002100000044FF000050B59035104F1040400EBF6
:1002200004059542F7DD0848084A4FF000034FF0F7
:100230000004036004309042FBD3704700000020AC
:10024000180300080000002000000020000000202B
:100250004EF69050CEF2000070474EF20010CEF2F3
:10026000000070474EF60070CEF2000070474EF668
:100270000050CEF2000070474EF21000CEF20000A7
:100280007047000083B08DF807009DF807000090CC
:100290000099DFE801F0050B11171D232900FEDE90
:1002A00040F60000C4F20100029023E040F6004056
:1002B000C4F2010002901DE041F20000C4F201000E
:1002C000029017E041F20040C4F20100029011E0F8
:1002D00041F60000C4F2010002900BE041F600403C
:1002E000C4F20100029005E042F20000C4F20100F5
:1002F0000290FFE7029803B070470020C4F20100AB
:10030000704741F20000C4F202007047FFE7FEE7C9
:080310005CFEFF7F010000000C
:04000005080001ED01
:00000001FF
