:020000040800F2
:100000000000000099020008AD020008AD020008DF
:10001000AD020008AD020008AD02000800000000BB
:10002000000000000000000000000000AD02000819
:10003000AD02000800000000AD02000891010008B8
:10004000AD020008AD020008AD020008AD020008D4
:10005000AD020008AD020008AD020008AD020008C4
:10006000AD020008AD020008AD020008AD020008B4
:10007000AD020008AD020008AD020008AD020008A4
:10008000AD020008AD020008AD020008AD02000894
:10009000AD020008AD020008AD020008AD02000884
:1000A000AD020008AD02000800000000AD0200082B
:1000B000AD020008AD020008AD020008AD02000864
:1000C000AD020008AD020008AD020008AD02000854
:1000D000AD020008AD020008AD020008AD02000844
:1000E000AD020008AD020008AD02000800000000EB
:1000F0000000000000000000AD020008AD02000892
:10010000AD020008AD020008AD020008AD02000813
:10011000AD020008AD020008AD020008AD02000803
:10012000AD020008AD020008AD020008AD020008F3
:10013000AD020008AD020008AD020008AD020008E3
:10014000C403000800000020000000200000002080
:10015000000000200050002000000020C403000820
:1001600000000020000000200000002081B0006896
:100170000090009801B070470160704780B56F46ED
:10018000FFF7F4FF80BD80B56F46FFF7F5FF80BD38
:1001900040F20000C2F20000016801310160006815
:1001A000632801D8FFE7704740F20001C2F2000166
:1001B0000020086040F20401C2F200010A78012028
:1001C00090430870EFE780B56F4682B000F09BF86F
:1001D00050304021FFF7D7FF00F0A4F80090002135
:1001E0000191072101910199FFF7CDFF009804309B
:1001F0004FF4FA51FFF7C7FF02B080BD80B56F46DC
:100200008AB000F0D4F801900020039007F80D0C9C
:1002100017F80D0C00F08CF8014601980591029139
:1002200018300490FFF7AAFF014605980791FFF7E1
:10023000A5FF0146039808910990FFF7C4FF0498B1
:10024000079941F0040107910799FFF79CFF059872
:10025000089921F07F610891089941F440110891B3
:100260000899FFF790FFFFE740F20400C2F2000098
:100270000078C00728B9FFE7099820F0200009900E
:1002800004E0099840F020000990FFE702980C3044
:100290000999FFF778FFE7E7DFF80CD000F008F8DE
:1002A000FFF7ACFF7047000000500020FEE70000A1
:1002B0000D480E490E4A4FF000034FF000044FF076
:1002C00000050B59035104F1040400EB04059542A9
:1002D000F7DD0848084A4FF000034FF000040360C0
:1002E00004309042FBD3704700000020C403000894
:1002F0000000002000000020000000204EF690507A
:10030000CEF2000070474EF20010CEF200007047AF
:100310004EF60070CEF2000070474EF60050CEF25E
:10032000000070474EF21000CEF20000704700004F
:1003300083B08DF807009DF8070000900099DFE872
:1003400001F0050B11171D232900FEDE40F6000009
:10035000C4F20100029023E040F60040C4F2010024
:1003600002901DE041F20000C4F20100029017E08B
:1003700041F20040C4F20100029011E041F6000099
:10038000C4F2010002900BE041F60040C4F201000B
:10039000029005E042F20000C4F201000290FFE783
:1003A000029803B070470020C4F20100704741F288
:0C03B0000000C4F202007047FFE7FEE707
:0803BC00B0FDFF7F010000000D
:040000050800029954
:00000001FF
