:020000040800F2
:1000000000000000A1010008AB010008AB010008DE
:10001000AB010008AB010008AB01000800000000C4
:10002000000000000000000000000000AB0100081C
:10003000AB01000800000000AB010008AB010008A4
:10004000AB010008AB010008AB010008AB010008E0
:10005000AB010008AB010008AB010008AB010008D0
:10006000AB010008AB010008AB010008AB010008C0
:10007000AB010008AB010008AB010008AB010008B0
:10008000AB010008AB010008AB010008AB010008A0
:10009000AB010008AB010008AB010008AB01000890
:1000A000AB010008AB01000800000000AB01000834
:1000B000AB010008AB010008AB010008AB01000870
:1000C000AB010008AB010008AB010008AB01000860
:1000D000AB010008AB010008AB010008AB01000850
:1000E000AB010008AB010008AB01000800000000F4
:1000F0000000000000000000AB010008AB01000898
:10010000AB010008AB01000877010008AB01000853
:10011000AB010008AB010008AB010008AB0100080F
:10012000AB010008AB010008AB010008AB010008FF
:10013000AB010008AB010008AB010008AB010008EF
:100140002002000800000020000000200000002025
:100150000000002000000020200200080000002015
:1001600000000020000000200160704780B56F464D
:10017000FFF7FAFF80BD81B00020009000980130A9
:10018000009001B0704780B56F4682B000F034F83F
:100190000190FFE7019850300121FFF7E7FFF9E7F1
:1001A00000F004F8FFF7EFFF7047FEE70D480E4937
:1001B0000E4A4FF000034FF000044FF000050B59BA
:1001C000035104F1040400EB04059542F7DD0848EF
:1001D000084A4FF000034FF00004036004309042DF
:1001E000FBD3704700000020200200080000002020
:1001F00000000020000000204EF20010CEF20000AF
:1002000070474EF60070CEF2000070474EF21000BC
:06021000CEF20000704771
:0802180050FFFF7F0100000010
:04000005080001A14D
:00000001FF
